:020000040800F2
:1000000000080020693B0008FD010008FF0100080E
:1000100003020008070200080B02000800000000AD
:100020000000000000000000000000000F020008B7
:100030001102000800000000130200081502000869
:10004000833B0008833B0008833B0008833B000898
:10005000833B0008833B0008833B0008833B000888
:10006000833B0008833B0008833B0008833B000878
:10007000833B0008833B0008833B0008833B000868
:10008000833B0008833B0008833B0008833B000858
:10009000833B0008833B0008833B0008833B000848
:1000A000833B0008833B0008833B0008833B000838
:1000B000833B0008833B0008D7040008833B00080B
:1000C000833B0008833B0008833B0008833B000818
:1000D000833B000895010008833B0008833B000830
:1000E000833B0008833B0008833B0008833B0008F8
:1000F000833B0008833B0008833B0008833B0008E8
:10010000833B0008833B0008833B0008833B0008D7
:10011000833B0008833B0008833B0008833B0008C7
:10012000833B0008833B0008833B0008833B0008B7
:10013000DFF80CD003F084FF0048004745010008B9
:100140000008002000F03AFB00F0BEF800F0F3FEDB
:1001500001F032F900F088FB00F0BAFD20A003F0B6
:1001600081FF16E04FF0E020006920F001004FF021
:10017000E021086100BF1C4800780028FBD04FF048
:10018000E020006940F001004FF0E021086101F03B
:10019000FCFCE7E710B540F22551144803F0A1FC40
:1001A000E0B113490988CAB21249087800F1010187
:1001B000104B197010490A5408460078242803D0BF
:1001C00000201946087010BD0A480078401E0A49F0
:1001D000085C232802D101200349087000BFF2E720
:1001E00073746172740A000000000020003801403E
:1001F000043801400100002088000020704700BF43
:10020000FEE700BFFEE700BFFEE700BFFEE7704766
:100210007047704710B500F014FB10BD08B5012100
:10022000042002F058FB4FF40070ADF800001820D5
:100230008DF8030003208DF802006946424802F061
:1002400097F84FF48060ADF8000004208DF80300AB
:1002500069463D4802F08CF808BD00B585B0012123
:10026000880302F038FB4FF4E13001900020ADF834
:100270000800ADF80A00ADF80C00ADF810000C2035
:10028000ADF80E0001A9314803F0ABFA012240F2AB
:1002900025512E4803F03DFB01212C4803F02DFB96
:1002A0004FF4E06001F088FF25208DF80000002069
:1002B0008DF8010001208DF802008DF803006846DA
:1002C00001F07FFF05B000BD10B5FFF7A7FFFFF7F6
:1002D000C4FF10BD70B504460D46E1B21B4803F0E3
:1002E0007CFB00BF8021194803F0E5FB0028F9D012
:1002F000204670BD10B5044600BF2021134803F00E
:10030000DAFB0028F9D0114803F06BFB10BD10B5E3
:10031000044621460D4803F060FB00BF80210B48D6
:1003200003F0C9FB0028F9D0204610BD70B5044683
:100330000D46002605E02078FFF7E9FF641C701CDD
:1003400086B2AE42F7DB70BD0008014000380140C4
:100350007FB504460D460121084602F0C9FA41F274
:100360008830ADF8080041F61F40ADF804000020C9
:10037000ADF80A00ADF8060001A94FF0804002F088
:10038000E9FB0121880703F0D1F901224121880707
:1003900002F035FF4FF4A06001F00EFF1C208DF835
:1003A000000000208DF8010003208DF802000120DC
:1003B0008DF80300684601F004FF7FBD30B589B0B9
:1003C00005460C460121042002F092FA0121082082
:1003D00002F081FA4FF47070ADF8140028208DF807
:1003E000170005A9DF4801F0C3FF4FF47071DD4825
:1003F00002F06BF8ADF80C50ADF808400020ADF8F5
:100400000E00ADF80A0002A9D74802F0A3FB0020B5
:10041000ADF81800ADF81A000120ADF81C0000205E
:10042000ADF81E00ADF8200006A9CF4802F003FE8B
:100430000420ADF818000020ADF81A000120ADF836
:100440001C000020ADF81E00ADF8200006A9C6482B
:1004500002F0F1FD0820ADF818000020ADF81A00F8
:100460000120ADF81C000020ADF81E00ADF8200002
:1004700006A9BD4802F0DFFD0C20ADF818000020F1
:10048000ADF81A000120ADF81C000020ADF81E00E8
:10049000ADF8200006A9B44802F0CDFD4FF4A060ED
:1004A00001F08AFE1E208DF8040000208DF8050062
:1004B0008DF8060001208DF8070001A801F081FEEB
:1004C00001221E21A84802F09AFE0121A64802F04E
:1004D00070FE09B030BD10B5A448007810F0800F50
:1004E0004CD10221A04803F024F9B0B302219E4868
:1004F00003F030F99D48007810F0400F2ED09A4854
:1005000003F0F8F89A490880084600889949098854
:10051000884204DA4FF6FF709749086002E0002035
:10052000954908609248008892490988401A924982
:1005300009680844914908600846006800EB00100B
:100540004FF47A71B0FBF1F08C49086000208749C4
:1005500008700021844802F0DBFF0FE0824803F0BE
:10056000C9F884490880814890F9000040F04000B3
:100570007E49087002217C4802F0CAFF804800785A
:1005800010F0800F4BD10421774803F0D2F8B0B3BC
:100590000421754803F0DEF87948007810F0400F28
:1005A0002ED0714803F0A9F87649088008460088E3
:1005B00075490988884204DA4FF6FF70734908606C
:1005C00002E00020714908606E4800886E49098881
:1005D000401A6E49096808446D4908600846006879
:1005E00000EB00104FF47A71B0FBF1F0684908603D
:1005F00000206349087000215B4802F09BFF0EE079
:10060000594803F07AF8604908805D48007840F066
:1006100040005B4908700221534802F08BFF5D489F
:10062000007810F0800F4BD108214F4803F081F87B
:10063000B0B308214C4803F08DF85648007810F00C
:10064000400F2ED0484803F05BF853490880084615
:10065000008852490988884204DA4FF6FF705049F1
:10066000086002E000204E4908604B4800884B4972
:100670000988401A4A49096808444A4908600846F6
:10068000006800EB00104FF47A71B0FBF1F04549BF
:10069000086000203F4908700021334802F060FFE5
:1006A0000EE0314803F02CF83C49088039480078C6
:1006B00040F040003749087002212B4802F050FFFB
:1006C0003948007810F0800F4BD11021264803F0F4
:1006D00030F8B0B31021244803F03CF832480078D9
:1006E00010F0400F2ED0204803F00DF82F4908805D
:1006F000084600882E490988884204DA4FF6FF70C0
:100700002C49086002E000202A4908602748008838
:1007100027490988401A274909680844264908607A
:100720000846006800EB00104FF47A71B0FBF1F05E
:100730002149086000201C49087000210A4802F085
:1007400025FF0EE0084802F0DEFF19490880164830
:10075000007840F04000144908700221024802F07D
:1007600015FF10BD000C01400008004004000020EF
:100770001A00002018000020280000200800002097
:10078000050000201E0000201C0000202C0000207E
:100790000C00002006000020220000202000002085
:1007A000300000201000002007000020260000205C
:1007B000240000203400002014000020254909688E
:1007C000254AB1FBF2F0B0F1807F01D301211CE09A
:1007D00020F07F41491E4FF0E022516100BF5117C8
:1007E000002905DA0F2109011C4A0B23D15404E02A
:1007F0000F2109011A4A5317D15400BF00214FF0AD
:10080000E022916107211161002109B100BFFEE7DB
:100810004FF0E020006920F001004FF0E021086176
:100820007047104908604FF0E021096941F001016B
:100830004FF0E022116100BF0A4909680029FBD18D
:1008400070470848006820B106480068401E054906
:100850000860704770000020A086010018ED00E0DD
:1008600000E400E03800002008B50121212002F05A
:1008700032F80F20ADF8000003208DF80200482068
:100880008DF803006946164801F072FD08BD10B5E9
:100890000121134801F0FDFD18B90120114908603C
:1008A0001DE002210E4801F0F4FD18B902200D49A7
:1008B000086014E004210A4801F0EBFD18B9032098
:1008C000084908600BE00821054801F0E2FD18B96D
:1008D00004200449086002E000200249086010BDBD
:1008E000001401403C00002008B50121042001F063
:1008F000F2FF0F20ADF8000018208DF80300032050
:100900008DF802006946F74801F032FD08BDF0B5E8
:1009100087B04B274B244B254B260121082001F0A3
:10092000E7FF40F2E730ADF8140040F29F50ADF819
:1009300010000020ADF81600ADF8120004A9EA4836
:1009400002F008F96020ADF800000120ADF80200C7
:10095000ADF806700020ADF808006946E24802F0E4
:1009600036F90821E04802F05DFD0120ADF80200F3
:10097000ADF806406946DC4802F06BF90821DA4818
:1009800002F059FD0120ADF80200ADF806506946AD
:10099000D54802F0A7F90821D34802F057FD0120FD
:1009A000ADF80200ADF806606946CF4802F0E1F903
:1009B0000821CD4802F053FD0121CB4802F002FD91
:1009C0000121C94802F0F5FB07B0F0BD10B5FFF7F3
:1009D0008BFFFFF79CFF10BD08B50121042001F03B
:1009E0007AFF4FF47070ADF8000018208DF8030006
:1009F00003208DF802006946BC4801F0B9FC08BD2F
:100A0000F0B587B04B274B244B254B260121042002
:100A100001F06EFF40F2E730ADF8140040F29F5055
:100A2000ADF810000020ADF81600ADF8120004A9D2
:100A3000AF4802F08FF86020ADF800000120ADF85B
:100A40000200ADF806700020ADF808006946A8481D
:100A500002F0BDF80821A64802F0E4FC0120ADF840
:100A60000200ADF806406946A14802F0F2F80821FC
:100A70009F4802F0E0FC0120ADF80200ADF80650FE
:100A800069469B4802F02EF90821994802F0DEFCE5
:100A90000120ADF80200ADF806606946944802F006
:100AA00068F90821924802F0DAFC0121904802F02E
:100AB00089FC01218E4802F07CFB07B0F0BD10B527
:100AC000FFF78AFFFFF79CFF10BD08B5012140200A
:100AD00001F001FF0121084601F0FDFE4FF4D44072
:100AE000ADF8000018208DF8030003208DF80200F7
:100AF0006946804801F03CFC08BDF0B587B04B2743
:100B00004B244B254B260121C80201F0E4FE0121B4
:100B1000794801F0FCFC794801F048FF0620ADF867
:100B200010000020ADF8120040F2E730ADF81400DC
:100B30000020ADF816008DF8180004A96F4802F0E7
:100B400009F87020ADF800000120ADF80200ADF802
:100B500006700220ADF808000020ADF80C006946D0
:100B6000664802F034F80120ADF80200ADF8064006
:100B70006946624802F06DF80821604802F05BFCAB
:100B80000120ADF80200ADF8065069465B4802F05E
:100B9000A9F80821594802F059FC0120ADF80200DB
:100BA000ADF806606946554802F0E3F8082153485D
:100BB00002F055FC0121514802F0FBFA01214F4897
:100BC00002F003FB07B0F0BD10B5FFF77EFFFFF7A3
:100BD00094FF10BD08B50121102001F07CFE4FF4F8
:100BE0007070ADF8000018208DF8030003208DF818
:100BF00002006946424801F0BBFB08BDF0B587B072
:100C00004B274B244B254B260121480301F063FE63
:100C10003C4801F0CBFE40F29F50ADF810000020A0
:100C2000ADF8120040F2E730ADF814000020ADF846
:100C300016008DF8180004A9324801F08BFF7020CF
:100C4000ADF800000120ADF80200ADF806700220FA
:100C5000ADF808000020ADF80C006946294801F005
:100C6000B6FF0120ADF80200ADF806406946254800
:100C700001F0EFFF0821234802F0DDFB0120ADF871
:100C80000200ADF8065069461E4802F02BF8082114
:100C90001C4802F0DBFB0120ADF80200ADF8066055
:100CA0006946184802F065F80821164802F0D7FB9B
:100CB0000121144802F07DFA0121124802F085FA60
:100CC00007B0F0BD10B5FFF785FFFFF797FF10BD28
:100CD00010B5FFF77BFEFFF7F5FFFFF7F0FEFFF71C
:100CE00073FF10BD00080140000C0040000C0140E3
:100CF0000008004000180140C0001600002C014010
:100D0000001001400034014010B500246CE00C2CB0
:100D100067D2DFE804F0060E161E262E363E464E3B
:100D2000565E334850F8240081B2324802F0D0FCBD
:100D300058E02F4850F8240081B22E4802F0CAFC37
:100D400050E02B4850F8240081B22A4802F0C4FC3D
:100D500048E0274850F8240081B2264802F0BEFC43
:100D600040E0234850F8240081B2234802F0B0FC50
:100D700038E01F4850F8240081B2204802F0A8FC57
:100D800030E01B4850F8240081B21C4802F0A2FC5D
:100D900028E0174850F8240081B2184802F09CFC63
:100DA00020E0134850F8240081B2144802F096FC69
:100DB00018E00F4850F8240081B20F4802F08AFC76
:100DC00010E00B4850F8240081B20B4802F084FC7C
:100DD00008E0074850F8240081B2074802F07EFC82
:100DE00000E000BF00BF641C0C2C90DB10BD0000B5
:100DF000B0000020000C004000340140000800401A
:100E000008B501210C2001F066FDC020ADF80000FE
:100E100018208DF8030003208DF802006946FC4875
:100E200001F0A6FA0320ADF800006946F94801F088
:100E30009FFA08BD08B50121102001F04CFD0F20DC
:100E4000ADF8000010208DF8030003208DF802009B
:100E50006946F14801F08CFA0121EF4801F033FBBB
:100E60000221ED4801F02FFB0421EB4801F02BFBA0
:100E70000821E94801F027FB08BDF0B587B040F232
:100E8000E7373C46254626460121022001F030FD89
:100E90002046ADF814000620ADF810000020ADF893
:100EA0001600ADF8120004A9DC4801F053FE6020E2
:100EB000ADF800000120ADF80200ADF8067000208A
:100EC000ADF808006946D54801F081FE0821D348F5
:100ED00002F0A8FA0120ADF80200ADF8064069461C
:100EE000CE4801F0B6FE0821CC4802F0A4FA012059
:100EF000ADF80200ADF806506946C84801F0F2FEB0
:100F00000821C64802F0A2FA0120ADF80200ADF8AF
:100F100006606946C14801F02CFF0821BF4802F075
:100F20009EFA0121BD4802F04DFA0121BB4802F0B2
:100F300040F907B0F0BD10B5FFF762FFFFF79DFF66
:100F4000FFF778FF10BD70B505460E46144646B94A
:100F50000021B24802F0BCFB0121AF4801F0B5FA14
:100F600070BD65B104F1C800C0F5C87081B2AB486E
:100F700002F0AEFB0121A84801F0A5FA09E004F552
:100F8000487081B2A54802F0A3FB0121A24801F0FC
:100F90009CFA00BFE4E770B505460E46144646B914
:100FA00000219E4802F096FB02219B4801F08DFA39
:100FB00070BD65B104F1C800C0F5C87081B2974832
:100FC00002F088FB0221944801F07DFA09E004F563
:100FD000487081B2914802F07DFB02218E4801F0F9
:100FE00074FA00BFE4E770B505460E46144646B9EC
:100FF00000218A4802F070FB0421874801F065FA5D
:1010000070BD65B104F1C800C0F5C87081B28348F5
:1010100002F062FB0421804801F055FA09E004F572
:10102000487081B27D4802F057FB04217A4801F0F4
:101030004CFA00BFE4E770B505460E46144646B9C3
:101040000021764802F04AFB0821734801F03DFA7E
:1010500070BD65B104F1C800C0F5C87081B26F48B9
:1010600002F03CFB08216C4801F02DFA09E004F580
:10107000487081B2694802F031FB0821664801F0EE
:1010800024FA00BFE4E710B50446A4F54872012134
:101090000846FFF7A8FFA4F5487201210846FFF7AC
:1010A000CAFF01205E49086010BD10B50446A4F5D2
:1010B000487201210020FFF796FFA4F54872012134
:1010C0000020FFF7B8FF02205549086010BD10B599
:1010D0000446A4F5487201210846FFF734FFA4F541
:1010E000487201210846FFF756FF03204C4908606B
:1010F00010BD10B50446A4F5487201210020FFF789
:1011000022FFA4F5487201210020FFF744FF0420CC
:101110004349086010BD10B5002211460120FFF7B9
:1011200012FF002211460120FFF735FF0022114671
:101130000120FFF758FF002211460120FFF77BFF37
:1011400000203749086010BD10B50022114601206B
:10115000FFF7F9FE002211460120FFF71CFF10BD2A
:1011600010B5002211460120FFF73DFF0022114675
:101170000120FFF760FF10BD70B5044640F28360A8
:1011800004FB00F50A2026490860002201210846D8
:10119000FFF7D9FE002201210846FFF74CFF00228D
:1011A00001211046FFF7F7FE002201211046FFF74C
:1011B0001AFF2846FFF735FB002211460120FFF7F2
:1011C000C2FE002211460120FFF7E5FE0022114673
:1011D0000120FFF708FF002211460120FFF72BFF37
:1011E00070BD10B50F4A01210846FFF7ACFE0D4A4D
:1011F00001210846FFF71FFF0A4A01210020FFF7DF
:10120000CAFE084A01210020FFF7EDFE10BD0000D4
:1012100000080140000C01400010014000040040A3
:1012200040000020DAFDFFFF10B5614A01210020D7
:10123000FFF789FE5E4A01210020FFF7FCFE5C4AB1
:1012400001210846FFF7A7FE594A01210846FFF78A
:10125000CAFE10BD70B5044640F2836004FB00F581
:10126000092054490860002201211046FFF76BFE57
:10127000002201211046FFF7DEFE00220121084670
:10128000FFF789FE002201210846FFF7ACFE284641
:10129000FFF7C7FA002211460120FFF754FE002293
:1012A00011460120FFF777FE002211460120FFF7CB
:1012B0009AFE002211460120FFF7BDFE70BD10B559
:1012C0000446A4F5487201210020FFF73CFEA4F576
:1012D000487201210020FFF75EFEA4F5487201214B
:1012E0000846FFF780FEA4F5487201210846FFF783
:1012F000A2FE05202F49086010BD10B50446A4F5D4
:10130000487201210846FFF71EFEA4F5487201212C
:101310000846FFF740FEA4F5487201210846FFF792
:1013200062FEA4F5487201210846FFF784FE0620FC
:101330002049086010BD10B50446A4F5487201218B
:101340000846FFF700FEA4F5487201210846FFF7A2
:1013500022FEA4F5487201210020FFF744FEA4F507
:10136000487201210020FFF766FE0720114908603E
:1013700010BD10B50446A4F5487201210020FFF706
:10138000E2FDA4F5487201210020FFF704FEA4F558
:10139000487201210020FFF726FEA4F548720121C2
:1013A0000020FFF748FE08200249086010BD000039
:1013B000DAFDFFFF4000002008B50121402001F0C8
:1013C0008AFA1020ADF800008DF8030003208DF894
:1013D00002006946034800F0CBFF1021014801F0EC
:1013E00072F808BD00180140002004E00021FF4A07
:1013F00042F82010401C0528F8DB704702461346CF
:1014000009B90120704702E05A43481E41B2012940
:10141000FADC1046F6E72DE9F84F05460E460027A0
:10142000B9460024A0466CB20EE0F148005D2E28BB
:1014300007D0EF48005D303807EB870100EB41072C
:1014400000E0A046601C44B2B442EEDBB8F1000FED
:1014500015D0E8480078A0EB0800801E41B20A20B1
:10146000FFF7CCFF834602F056FD8246384602F075
:1014700052FD5146009002F00EFD814603E03846D1
:1014800002F049FD81464846BDE8F88F2DE9F0415C
:1014900086B04FF000080025142101A802F061FC7D
:1014A000002600241BE00CB9022704E0601E01A9FD
:1014B00051F82000471C7DB20AE0CD48405D2C2841
:1014C00004D101A840F82450761C06E0681C45B2FF
:1014D000C8480078401EA842EFDC00BF641C052C01
:1014E000E1DB052E03D1C4A002F0BCFD06E03146CD
:1014F000C8A002F0B7FD06B0BDE8F0810220019956
:10150000FFF789FF8046CB49404602F041FD09D8EC
:10151000C949404602F032FD04D8404602F000FDC1
:10152000B2490860DDE90121501CFFF774FF8046D5
:10153000C249404602F022FD09D8C149404602F0A6
:1015400027FD04D8404602F0EBFCA8494860DDE9DD
:101550000221501CFFF75FFF8046BA49404602F067
:1015600017FD09D8B349404602F008FD04D84046AB
:1015700002F0D6FC9D498860DDE90321501CFFF78D
:101580004AFF8046AB49404602F002FD09D8AE4909
:10159000404602F0F3FC04D8404602F0C1FC9349F7
:1015A000C860DDE90421501CFFF735FF8046A149E2
:1015B000404602F0EDFC09D8A349404602F0DEFCAB
:1015C00004D8404602F0ACFC88490861894A127888
:1015D000511E059A501CFFF71EFF80469549404654
:1015E00002F0D6FC09D89849404602F0C7FC04D85E
:1015F000404602F095FC7D4948617D4993A002F088
:1016000031FD7A48016893A002F02CFD77484168CB
:1016100092A002F027FD7548816892A002F022FD99
:101620007248C16891A002F01DFD7048016991A047
:1016300002F018FD6D48416990A002F013FD6B485F
:10164000006881B28F4802F043F86848406881B270
:101650008C4802F03FF800BF4DE770B500246448A5
:101660008078732805D1FFF756FD87A002F0FAFCB9
:10167000D8E15F488078712817D1FFF74CFD5D48AD
:101680000078411E0320FFF7C6FE0446204602F004
:1016900047FC0546FFF7F7FC204602F041FC0546F3
:1016A00001467DA002F0DEFCBCE15148807877283D
:1016B00017D1FFF730FD4F480078411E0320FFF798
:1016C000AAFE0446204602F02BFC0546FFF7EDFC7F
:1016D000204602F025FC0546014676A002F0C2FC39
:1016E000A0E143488078652817D1FFF714FD4148F1
:1016F0000078411E0320FFF78EFE0446204602F0CC
:101700000FFC0546FFF7E3FC204602F009FC054606
:1017100001466EA002F0A6FC84E13548807872286C
:1017200017D1FFF7F8FC33480078411E0320FFF77C
:1017300072FE0446204602F0F3FB0546FFF7D9FC93
:10174000204602F0EDFB0546014666A002F08AFC49
:1017500068E127488078742817D1FFF7DCFC25481A
:101760000078411E0320FFF756FE0446204602F093
:10177000D7FB0546FFF7A3FD204602F0D1FB054647
:1017800001465EA002F06EFC4CE119488078792891
:1017900017D1FFF7C0FC17480078411E0320FFF760
:1017A0003AFE0446204602F0BBFB0546FFF7A5FDC6
:1017B000204602F0B5FB0546014658A002F052FC57
:1017C00030E10B48807875280FD1FFF7A4FC094859
:1017D0000078411E0320FFF71EFE0446204602F05B
:1017E0009FFB0546FFF7C5FDA8E0B0E0980000208C
:1017F00088000020010000204B696E65637420633F
:101800006F6D6D756E6374696F6E204F4B210D0A9D
:10181000000000004B696E65637420636F6D6D7529
:101820006E6374696F6E206572726F722025642119
:101830000D0A0000000096420000FA4200009A42A1
:1018400000002442000048420000DA4225730D0ADD
:1018500000000000313A25640D0A0000323A256488
:101860000D0A0000333A25640D0A0000343A25645D
:101870000D0A0000353A25640D0A0000363A256449
:101880000D0A0000000C00404D6F746F72205374FD
:101890006F70210D0A0000004D6F746F7220737419
:1018A0007261696768742073706565643A256421A4
:1018B0000D0A00004D6F746F72206261636B2073BC
:1018C000706565643A2564210D0A00004D6F746FE0
:1018D00072206C6566742073706565643A256421B6
:1018E0000D0A00004D6F746F722072696768742072
:1018F00073706565643A2564210D0A004D6F746F3D
:1019000072207269676874737472616967687420A1
:1019100073706565643A2564210D0A004D6F746F1C
:1019200072206C6566747374726169676874207381
:10193000706565643A2564210D0A0000204602F0B6
:10194000EFFA05460146ACA002F08CFB6AE0B14814
:101950008078692817D1FFF7DEFBAF480078411E79
:101960000320FFF758FD0446204602F0D9FA054649
:10197000FFF7E1FC204602F0D3FA05460146A7A096
:1019800002F070FB4EE0A34880786F2817D1FFF774
:10199000C2FBA1480078411E0320FFF73CFD04462E
:1019A000204602F0BDFA0546FFF754FC204602F03F
:1019B000B7FA05460146A0A002F054FB32E0954874
:1019C0008078702817D1FFF7A6FB93480078411E56
:1019D0000320FFF720FD0446204602F0A1FA054649
:1019E000FFF7CAFB204602F09BFA054601469AA083
:1019F00002F038FB16E087488078612807D1FFF7AE
:101A00008AFBFFF7EEFB9BA002F02CFB0AE081486B
:101A10008078642806D1FFF77EFBFFF705FC9BA0CA
:101A200002F020FB70BD10B57A488078692802D199
:101A300000F0D7F90FE077488078402802D100F015
:101A40005EFB08E073488078742802D100F041FB07
:101A500001E07048807810BD10B56E48807831285C
:101A600003D191A002F0FEFA0EE06A488078322895
:101A700003D190A002F0F6FA06E066488078332899
:101A800002D18FA002F0EEFA10BD2DE9F0478CB024
:101A90004FF0000A00252C2101A802F062F900266F
:101AA00000241BE00CB9022704E0601E01A951F8D4
:101AB0002000471C7DB20AE05648405D2C2804D126
:101AC00001A840F82450761C06E0681C45B2524834
:101AD0000078401EA842EFDC00BF641C0B2CE1DB49
:101AE0000B2E03D179A002F0BDFA06E0314680A0AA
:101AF00002F0B8FA0CB0BDE8F08700242EE024B95B
:101B00004FF00208DDF8049012E00B2C07D10B987F
:101B100000F1010840480078A0F1010908E0601ECA
:101B200001A951F8200000F1010801A850F8249003
:101B300049464046FFF76FFC82467749504602F01F
:101B400027FA0AD87549504602F018FA05D85046C7
:101B500002F0E6F9724941F82400641C0C2CCEDB3B
:101B60002C49AFF2183002F07DFA002407E06C48EF
:101B700050F8242021466BA002F074FA641C0C2C4F
:101B8000F5DBFFF7C1F800BFB4E710B500206749E7
:101B90000870002240F22551654801F0BAFE1D4848
:101BA0004078612802D1FFF771FC1AE019484078AB
:101BB0007A2802D1FFF751FD13E0164840787328C8
:101BC00002D1FFF730FF0CE012484078782802D1AC
:101BD000FFF742FF05E00F484078632801D1FFF787
:101BE00054FF00200C490870012240F22551504852
:101BF00001F08FFE10BD00004D6F746F722072698E
:101C00006768746261636B2073706565643A25640C
:101C1000210D0A0088000020010000204D6F746F24
:101C200072206C6566746261636B207370656564B5
:101C30003A2564210D0A00004D6F746F722072699D
:101C4000676874726F756E6420616E67656C3A25A3
:101C500064210D0A000000004D6F746F72206C65E6
:101C60006674726F756E6420616E676C653A256488
:101C7000210D0A004D6F746F72206C656674726F6F
:101C8000756E64207374696C6C0D0A004D6F746F0F
:101C900072207269676874726F756E6420737469FC
:101CA0006C6C0D0A00000000616374696F6E3A315C
:101CB0000D0A0000616374696F6E3A320D0A00000C
:101CC000616374696F6E3A330D0A00007374656561
:101CD00072696E67456E67696E6520636F6D6D75BD
:101CE0006E6374696F6E204F4B210D0A0000000077
:101CF0007374656572696E67456E67696E652063AA
:101D00006F6D6D756E6374696F6E206572726F7240
:101D1000202564210D0A00000000C8410000FA429D
:101D2000B000002025643A25640D0A000000002060
:101D3000003801402DE9FE4F04460E4615461F4669
:101D4000DDE90C89F64800EB04100660F44800EB6E
:101D500004104560F24800EB04100772F04800EBF5
:101D6000041080F80980EE4800EB041080F80A9017
:101D7000304602F0D0F80290284602F0CCF80190EC
:101D8000029902F04CF88246384602F0C4F80290FC
:101D9000404602F0C0F80190029902F040F88346F4
:101DA000514602F078F8DE4901EB0411C860DD48C5
:101DB0000068A84201D2DB4805602B463246214626
:101DC000D9488DE8800302F04DF9BDE8FE8F70B56B
:101DD00000240025D5A002F045F9DAA002F042F96E
:101DE00070BD10B5002419E00020CD4901EB0411AD
:101DF0000860CB4901EB04114860C94901EB0411AB
:101E00000872C74901EB04114872C54901EB04117E
:101E10008872C34901EB0411C860641C322CE3D3FF
:101E20004B20CE4908704E2048704B208870C870F7
:101E3000087148718871C871087248728872C872D6
:101E4000002454E00C2C4FD2DFE804F0060C1218EA
:101E50001E242A30363C4248C048015DC04801F08B
:101E600037FC42E0BD48015DBD4801F033FC3CE079
:101E7000BA48015DBA4801F02FFC36E0B748015D71
:101E8000B74801F02BFC30E0B448015DB54801F0E3
:101E90001FFC2AE0B148015DB34801F019FC24E0C1
:101EA000AE48015DB04801F015FC1EE0AB48015D95
:101EB000AD4801F011FC18E0A848015DAA4801F006
:101EC0000DFC12E0A548015DA64801F003FC0CE002
:101ED000A248015DA34801F001FC06E09F48015DB6
:101EE000A04801F0F9FB00E000BF00BF641C0C2C0F
:101EF000A8D39EA002F0B6F810BD2DE9F047054624
:101F00000024DFE0864800EB04100068A84274D883
:101F1000834800EB04104068A8426ED3804901EB6F
:101F20000411087A01F0F7FF80467D4901EB0411A6
:101F30000968681A01F0EFFF8146794800EB041048
:101F4000C168484601F071FF0746414601F015FFA0
:101F50000646734800EB0410807A0C2814D2DFE8A0
:101F600000F0061422303E4D5B69778593A1304620
:101F700001F0EFFFC7B23946794801F0A9FB3046BE
:101F800001F0E7FF754908709AE0304601F0E1FF83
:101F9000C7B23946724801F09DFB304601F0D9FFC7
:101FA0006E4948708CE0304601F0D3FFC7B2394625
:101FB0006B4801F091FB304601F0CBFF6749887018
:101FC0007EE0304601F0C5FFC7B23946644801F0F3
:101FD00085FB304601F0BDFF6049C87070E03046B7
:101FE00001F0B7FFC7B239465E4801F071FB3046D9
:101FF00001F0AFFF5949087162E062E0304601F03C
:10200000A8FFC7B23946584801F062FB304601F0DC
:10201000A0FF5249487153E0304601F09AFFC7B221
:102020003946514801F056FB304601F092FF4B49CA
:10203000887145E0304601F08CFFC7B239464A4806
:1020400001F04AFB304601F084FF4449C87137E093
:10205000304601F07EFFC7B23946434801F03EFBEF
:10206000304601F076FF3D49087229E0304601F024
:1020700070FFC7B239463B4801F02CFB304601F0F7
:1020800068FF364948721BE0304601F062FFC7B274
:102090003946344801F022FB304601F05AFF2F49FF
:1020A00088720DE0304601F054FFC7B239462D4822
:1020B00001F012FB304601F04CFF2849C87200BF06
:1020C00000BF641C304800688442FFF41BAFBDE8C9
:1020D000F08710B500202D4908604FF0E02000691E
:1020E00020F001004FF0E02108610846006940F04F
:1020F0000100086125480068FFF7FFFE10BD10B51C
:1021000023A001F0AFFF002406E01448025D214641
:1021100025A001F0A7FF641C0C2CF6DB10BD00000D
:10212000E00000204C000020584200084D6F76650A
:10213000204C697374204164642053746172743A52
:102140000D0A23004D6F7665204C6973742041643D
:102150006420456E64210D0A230000005000002019
:10216000000C0040002C01400008004023416C6C32
:102170002066756E6374696F6E2068617320636C8E
:10218000656172210D0A0000480000204400002013
:1021900023416C6C2053746565722056616C7565C3
:1021A000204E6F770D0A0000235374656572256415
:1021B0003A25640D0A00000036490143364A116091
:1021C000704770B5002100230F22C4784CB3324C05
:1021D000246804F4E064C4F5E0644FEA1421C1F11A
:1021E000040322FA01F2447804FA03F1847804EA41
:1021F000020444EA01014FEA0111284C0678A15576
:10220000047804F01F054FF0010404FA05F4057882
:102210004FEA65154FF0E02606EB8505C5F800414D
:1022200009E0047804F01F050124AC401C4D067839
:10223000761145F8264070BD1A4A0A4002431A4BEF
:102240001A60704741B1194A126842EA00024FF021
:10225000E023C3F8102D07E0144A126822EA0002B6
:102260004FF0E023C3F8102D7047042808D14FF039
:10227000E021096941F004014FF0E022116107E01B
:102280004FF0E021096921F004014FF0E0221161D3
:10229000704700000000FA050CED00E000E400E0EB
:1022A00080E100E080FFFF1F08ED00E010ED00E09E
:1022B00010B50446CA48844208D10121042000F028
:1022C00024FB0021042000F020FB46E0C5488442A6
:1022D00008D10121082000F018FB0021082000F09F
:1022E00014FB3AE0C048844208D10121102000F0DC
:1022F0000CFB0021102000F008FB2EE0BB488442BC
:1023000008D10121202000F000FB0021202000F056
:10231000FCFA22E0B648844208D10121402000F0B6
:10232000F4FA0021402000F0F0FA16E0B1488442AF
:1023300008D10121802000F0E8FA0021802000F07F
:10234000E4FA0AE0AC48844207D10121801500F08C
:10235000DCFA0021A01500F0D8FA10BD10B501215B
:10236000084600F0D2FA0021012000F0CEFA10BD9C
:102370002DE9F0410246002500260020002300241C
:10238000002791F803C00CF00F0591F803C01CF072
:10239000100F03D091F802C04CEA0505B1F800C057
:1023A0001CF0FF0F31D0146800202BE04FF0010C1F
:1023B0000CFA00F3B1F800C00CEA03069E4220D1EB
:1023C00083004FF00F0C0CFA03F7BC4305FA03FC33
:1023D0004CEA040491F803C0BCF1280F06D14FF079
:1023E000010C0CFA00FCC2F814C00AE091F803C01A
:1023F000BCF1480F05D14FF0010C0CFA00FCC2F8FB
:1024000010C0401C0828D1D31460B1F800C0BCF142
:10241000FF0F34DD546800202EE000F1080C4FF06F
:10242000010808FA0CF3B1F800C00CEA03069E425A
:1024300021D183004FF00F0C0CFA03F7BC4305FACF
:1024400003FC4CEA040491F803C0BCF1280F05D149
:1024500000F1080C08FA0CF8C2F8148091F803C0D7
:10246000BCF1480F07D100F1080C4FF0010808FA41
:102470000CF8C2F81080401C0828CED35460BDE888
:10248000F0814FF6FF710180022181700421C1703B
:1024900070470246002093680B4201D0012000E003
:1024A000002070470146886880B2704702460020CD
:1024B000D3680B4201D0012000E0002070470146A4
:1024C000C86880B2704701617047416170470AB1C6
:1024D000016100E041617047C16070474FF4803294
:1024E0000A43826181618261826982697047024622
:1024F0000020424B18684FF68073184040EA0210E3
:1025000008433E4B186070473D49C8617047F0B5BD
:102510000A46002300240021002500F00046B6F101
:10252000004F02D1354EF16901E0344E7168C0F3BD
:10253000034583B200F44016B6F5401F08D121F0E0
:1025400070612E4E766826F070662C4F7E6012E029
:1025500000F48016B6F5801F06D1032606FA05F4AE
:10256000A14341F0706106E0460D360103FA06F61C
:10257000B14341F0706122B1460D360103FA06F60F
:10258000314300F00046B6F1004F02D11B4EF1611D
:1025900001E01A4E7160F0BD30B500228B071C0FB0
:1025A0000F2303FA04F2154B08338C1053F8243030
:1025B0009343124C08348D1044F8253023468C1078
:1025C00053F824308C07240F00FA04F423430B4CF7
:1025D00008348D1044F8253030BD0A490860704732
:1025E00000080140000C01400010014000140140AF
:1025F00000180140001C0140002001400000014083
:1026000000002042DC002042DB48006840F001006E
:10261000D949086008464068D8490840D64948600A
:1026200008460068D6490840D34908600846006853
:1026300020F4802008600846406820F4FE004860CE
:102640004FF41F0088607047CB49096821F480313E
:10265000C94A11601146096821F480211160B0F562
:10266000803F03D0B0F5802F0ED106E0C249096843
:1026700041F48031C04A116007E0BF49096841F464
:10268000A021BD4A116000E000BF00BF704710B537
:1026900001460022002300204A11012A02D1B64C33
:1026A000236806E0022A02D1B34C236A01E0B24C4F
:1026B000636A01F01F02012494401C4201D00120F2
:1026C00000E0002010BD70B500240025002600BFEA
:1026D0003120FFF7DCFF0646641CB4F5A06F01D083
:1026E000002EF5D03120FFF7D2FF08B1012500E020
:1026F0000025284670BD014600209F4A106820F042
:10270000F80040EAC100106070479E4908607047B9
:1027100002460020984B586820F47C1042EA0103DE
:102720001843954B586070479649086670470146B4
:102730000020914A506820F0030008435060704721
:102740008D48406800F00C007047014600208A4A1E
:10275000506820F0F00008435060704701460020A8
:10276000854A506820F4E060084350607047014695
:102770000020814A506820F4605040EAC100506057
:10278000704729B17C4A527A02437B4B5A7206E069
:10279000794A527AC343DBB21A40774B5A72704778
:1027A00079490860704701460020734A506820F458
:1027B00040400843506070470021744A11706E4ACF
:1027C00082F82010012802D0042808D103E001215A
:1027D0006E4A117004E005216C4A117000E000BFE0
:1027E00000BF70476A49086070476349096A01433E
:1027F000614A1162704767490860704730B500212F
:102800000022002400235C4D6D6805F00C0121B10D
:10281000042905D0082923D105E05F4D056022E099
:102820005D4D05601FE0544D6D6805F47012524D0A
:102830006D6805F48034022505EB92421CB9574DB2
:10284000554305600BE04C4D6D6815F4003F03D017
:10285000524D5543056002E04F4D5543056002E07F
:102860004D4D056000BF00BF434D6D6805F0F001A0
:1028700009094B4D6B5C0568DD4045603E4D6D6858
:1028800005F4E061090A464D6B5C4568DD408560F2
:10289000394D6D6805F46051C90A414D6B5C45685E
:1028A000DD40C560344D6D6805F44041890B3D4DF8
:1028B0006B5CC568B5FBF3F5056130BD29B12E4AE7
:1028C000526902432C4B5A6104E02B4A52698243FD
:1028D000294B5A61704729B1274A92690243264B16
:1028E0009A6104E0244A92698243234B9A617047BB
:1028F00029B1214AD26902431F4BDA6104E01E4A22
:10290000D26982431C4BDA61704729B11A4AD268F6
:102910000243194BDA6004E0174AD2688243164B2F
:10292000DA60704729B1144A12690243124B1A61E6
:1029300004E0114A126982430F4B1A6170471A4929
:10294000086070470F49C86470470B49C8717047E9
:102950000948406A40F08070074948627047014664
:102960000020054A92680A4201D0012000E00020C0
:102970007047014988727047001002400000FFF85C
:10298000FFFFF6FE00004242D80042422010024003
:10299000800442423C04424200127A0000093D0099
:1029A0005C0000206C0000204004424210B5044648
:1029B000FF48844208D10121C014FFF7A6FF00217F
:1029C000E014FFF7A2FFC4E0B4F1804F08D1012169
:1029D0000846FFF7A7FF00210120FFF7A3FFB8E09B
:1029E000F448844208D101210220FFF79BFF002117
:1029F0000220FFF797FFACE0EF48844208D10121A5
:102A00000420FFF78FFF00210420FFF78BFFA0E0D9
:102A1000EA48844208D101210820FFF783FF002102
:102A20000820FFF77FFF94E0E548844208D10121A8
:102A30001020FFF777FF00211020FFF773FF88E0D9
:102A4000E048844208D101212020FFF76BFF0021DC
:102A50002020FFF767FF7CE0DB48844208D101219A
:102A60004014FFF752FF00216014FFF74EFF70E0A3
:102A7000D648844209D10121C804FFF746FF00214E
:102A80004FF40020FFF741FF63E0D148844209D1B1
:102A900001210805FFF739FF00214FF48010FFF7EF
:102AA00034FF56E0CB48844209D101214805FFF7A5
:102AB0002CFF00214FF40010FFF727FF49E0C64824
:102AC000844208D101214020FFF72CFF0021402043
:102AD000FFF728FF3DE0C148844208D10121802052
:102AE000FFF720FF00218020FFF71CFF31E0BC48EA
:102AF000844208D101218015FFF714FF0021A015A1
:102B0000FFF710FF25E0B748844209D101210804EE
:102B1000FFF7FBFE00214FF48030FFF7F6FE18E0D0
:102B2000B148844209D101214804FFF7EEFE00219B
:102B30004FF40030FFF7E9FE0BE0AC48844208D1C7
:102B400001218804FFF7E1FE00214FF48020FFF708
:102B5000DCFE10BD00220288954B98420ED09A4BA5
:102B600098420BD0B0F1804F08D0924B984205D0DC
:102B7000914B984202D0914B984204D14FF68F73FB
:102B80001A404B881A438E4B984207D08D4B98427F
:102B900004D04FF6FF431A40CB881A4302808B883B
:102BA00083850B880385824B98420BD0864B9842D5
:102BB00008D08C4B984205D08B4B984202D08B4B5F
:102BC000984201D10B7A038601238382704770B546
:102BD000002400220023058C4FF6FE763540058444
:102BE000028C8388048B4FF68F752C40B51E2C40C9
:102BF0000D882C43751E2A400D892A434D882A438F
:102C00006B4DA8420BD0704DA84208D0754DA8421C
:102C100005D0754DA84202D0744DA84213D14FF68D
:102C2000F7752A404D892A434FF6FB752A408D8857
:102C30002A434FF6FF652B404FF6FF552B408D89F9
:102C40002B43CD892B4383800483CD8885860284E2
:102C500070BD70B5002400220023058C4FF6EF767E
:102C600035400584028C8388048B48F6FF752C4020
:102C70004FF6FF452C400D882D0644EA15444FF6CB
:102C8000DF752A400D892D0542EA15424D882D0534
:102C900042EA1542464DA84202D04B4DA8421BD1F4
:102CA0004FF67F752A404D892D0542EA15424FF6B1
:102CB000BF752A408D882D0542EA15424FF6FF3533
:102CC0002B404FF2FF752B408D89AD0443EA15432D
:102CD000CD89AD0443EA154383800483CD880587FD
:102CE000028470BD70B5002400220023058C4FF6CD
:102CF000FF6635400584028C8388848B4FF68F7580
:102D00002C404FF6FC752C400D882C434FF6FF5598
:102D10002A400D892D0642EA15424D882D0642EAC9
:102D20001542234DA84202D0274DA8421BD14FF295
:102D3000FF752A404D892D0642EA15424FF6FF35B0
:102D40002A408D882D0642EA15424EF6FF752B402B
:102D50004DF6FF752B408D892D0543EA1543CD892E
:102D60002D0543EA154383808483CD8885870284BB
:102D700070BD70B5002200230024058C4EF6FF764E
:102D800035400584038C8488828B48F6FF752A4081
:102D90004FF6FF452A400D882D0642EA15424DF6B2
:102DA000FF752B400D892D0743EA15434D881FE021
:102DB000002C01400004004000080040000C0040CE
:102DC000001000400014004000340140004C01405D
:102DD000005001400054014000180040001C004019
:102DE00000200040004001400044014000480140F4
:102DF0002D0743EA1543F94DA84202D0F84DA842E9
:102E000006D14BF6FF752C408D89AD0544EA15447B
:102E100084808283CD88A0F84050038470BD828B6B
:102E20004FF2FF331A408283828B0B0642EA134231
:102E300082837047F0B50C4615460022002100261B
:102E4000078C4EF6FF7C07EA0C070784828B018C07
:102E500027073E0C40F6FF473A402F0642EA17424A
:102E60001F0742EA1742DD4FB8420ED0DC4FB8428E
:102E70000BD0B0F1804F08D0DA4FB84205D0DA4F0E
:102E8000B84202D0D94FB84206D14DF6FF7739404B
:102E900046F48057394305E047F6FF57394044F47C
:102EA0008057394382830184F0BD828B4FF6F373E0
:102EB0001A408283828B0A4382837047F0B50C46A6
:102EC0001546002200210026078C4FF6FF6C07EA0A
:102ED0000C070784828B018C27063E0C4FF60C777B
:102EE0003A401F0545EA17473A43BC4FB8420ED057
:102EF000BB4FB8420BD0B0F1804F08D0B94FB842A9
:102F000005D0B94FB84202D0B84FB84206D14FF6FB
:102F1000FF57394046F48077394305E04FF2FF57B9
:102F2000394044F48077394382830184F0BD028BB9
:102F30004FF2FF331A400283028B0B0642EA134220
:102F400002837047F0B50C4615460022002100268A
:102F5000078C4FF6EF7C07EA0C070784028B018C85
:102F600027053E0C40F6FF473A401F0742EA17424A
:102F70002F0642EA1742994FB8420ED0984FB842F6
:102F80000BD0B0F1804F08D0964FB84205D0964F85
:102F9000B84202D0954FB84206D14FF6DF7739409C
:102FA00046F01007394305E04FF65F77394044F0AB
:102FB0001007394302830184F0BD028B4FF6F3738F
:102FC0001A400283028B0A4302837047F0B50C4615
:102FD000154600220021068C4FF6FE773E400684FF
:102FE000028B018C4FF60C7632401E0545EA1646E0
:102FF00032437A4EB0420ED0794EB0420BD0B0F18F
:10300000804F08D0774EB04205D0774EB04202D004
:10301000764EB04206D14FF6FD76314044F00106BF
:10302000314305E04FF6F576314044F00106314377
:1030300002830184F0BD70B505460C4667488542A1
:103040000ED0674885420BD0B5F1804F08D0654857
:10305000854205D06448854202D06448854200D14B
:1030600000E000BF208850B92389A28861882846E3
:10307000FFF7ACFFE1882846FFF79FFF25E0208897
:1030800004280AD12389A28861882846FFF75AFFBD
:10309000E1882846FFF74BFF17E0208808280AD16F
:1030A0002389A28861882846FFF708FFE18828461F
:1030B000FFF7FBFE09E02389A28861882846FFF715
:1030C000B9FEE1882846FFF7AAFE70BD2DE9F04160
:1030D00005460C4600260127608808B9022600E054
:1030E0000026A088012801D1022700E001272088BE
:1030F000A0B92389A28861882846FFF767FFE18885
:103100002846FFF75AFF23893A4631462846FFF7FB
:1031100019FFE1882846FFF70AFF13E02389A288F8
:1031200061882846FFF70EFFE1882846FFF7FFFE7B
:1031300023893A4631462846FFF748FFE18828466A
:10314000FFF73BFFBDE8F0810A884B881A438B8864
:103150001A43CB881A430B891A434B891A438B892C
:103160001A43A0F8442070474FF6FF718180002178
:103170000180C1804180017270470021018041803F
:103180008180C180018141818181C181704700219D
:1031900001804180012181800021C180018170472F
:1031A0000021018041808180C18001814181818134
:1031B000704721B1028842F00102028004E00288D7
:1031C0004FF6FE731A400280704789B1B0F8442070
:1031D00042F40042A0F8442010E00000002C01401E
:1031E000003401400004004000080040000C004092
:1031F000B0F84420C2F30E02A0F84420704710B586
:103200001AB183890B43838104E08389CC43A4B240
:103210002340838110BD8182704741EA0203A0F8F8
:103220004830704710B51AB183890B43838104E09D
:103230008389CC43A4B22340838110BD01894FF61A
:10324000F8721140018170470A46002101894FF64A
:103250008F73194011430181704730B504460D4604
:1032600029462046FFF7F0FF208940F00700208123
:1032700030BD2DE9F04104460D4616461F46602D2F
:1032800006D13B46012231462046FFF75BFE05E0B2
:103290003B46012231462046FFF798FE294620464C
:1032A000FFF7D2FF208940F007002081BDE8F081C0
:1032B00030B50C4600210189C9B21D0642EA154508
:1032C00025432943018130BD2DE9F04105460E46D5
:1032D00017469846002443463A4631462846FFF7AB
:1032E000E7FF2C894FF6F8710C4044F007044FF6C5
:1032F0008F710C4044F070042C81BDE8F081F0B572
:1033000004460D4616461F463B4632462946204691
:10331000FFF7CEFF208940F480402081F0BD018579
:10332000828270470A46002101884FF68F73194048
:10333000114301807047F0B50C4615461E4600212A
:10334000002200230189028B038C4FF6F877394065
:1033500021434FF6FC473A4040F201173A434FF6FB
:10336000DD773B40370545EA17473B430181028340
:103370000384F0BD0A460021018B4FF68F7319407C
:103380001143018370470A460021018B48F6FF7301
:103390001940130641EA1341018370470A46002190
:1033A000818B4FF68F7319401143818370470A4612
:1033B0000021818B48F6FF731940130641EA13413F
:1033C0008183704721B1028842F08002028004E0CC
:1033D00002884FF67F731A400280704721B18288BD
:1033E00042F00402828004E082884FF6FB731A40A8
:1033F0008280704721B1828842F00802828004E016
:1034000082884FF6F7731A408280704721B1828814
:1034100042F00102828004E082884FF6FE731A4077
:10342000828070470A460021018B4FF6F7731940DE
:103430001143018370470A460021018B4FF2FF734D
:103440001940130641EA1341018370470A460021DF
:10345000818B4FF6F77319401143818370470A46F9
:103460000021818B4FF2FF731940130641EA13418B
:10347000818370470A460021018B4FF6FB73194088
:103480001143018370470A460021018B4FF6FF3339
:103490001940130641EA1341018370470A4600218F
:1034A000818B4FF6FB7319401143818370470A46A5
:1034B0000021818B4FF6FF331940130641EA134177
:1034C000818370470A460021018B4FF67F731940B4
:1034D0001143018370470A460021018BC1F30E019D
:1034E000130641EA1341018370470A460021818B8C
:1034F0004FF67F7319401143818370470A460021BC
:10350000818BC1F30E01130641EA13418183704799
:103510000A460021018C4FF6FD73194011430184C6
:1035200070470A460021018C4FF6F773194011438A
:10353000018470470A460021018C4FF6DF73194061
:10354000130541EA1341018470470A460021018CAA
:103550004FF67F731940130541EA13410184704708
:103560000A460021018C4FF6FF531940130641EA29
:103570001341018470470A460021018C4FF2FF730A
:103580001940130641EA1341018470470A4600219D
:10359000018C4DF6FF731940130741EA1341018472
:1035A000704730B5002301248C40A3B2048CDD4366
:1035B000ADB22C400484048C02FA01F5ADB22C4368
:1035C000048430BD30B5002304248C40A3B2048CA5
:1035D000DD43ADB22C400484048C02FA01F5ADB297
:1035E0002C43048430BD70B50346002000241846E7
:1035F000183001258D40ACB21D8CE643B6B2354083
:103600001D8409B1082909D100EB6100056825F086
:10361000700505600568154305600CE00D1FADB22F
:1036200000EB6500056825F4E045056005681606B1
:1036300045EA1645056070BD21B1028842F00202DC
:10364000028004E002884FF6FD731A400280704742
:1036500021B1028842F00402028004E002884FF6A1
:10366000FB731A400280704721B1828842F08002C9
:10367000828004E082884FF67F731A408280704710
:1036800002884FF6F7731A40028002880A430280CC
:10369000704782884FF68F731A40828082880A436F
:1036A0008280704702894FF6F8731A4002810289BE
:1036B0000A430281704702894FF67F731A400281E4
:1036C00002890A430281704781847047818570476F
:1036D000818670470187704781877047A0F8401046
:1036E000704702884FF6FF431A40028002880A435F
:1036F000028070470146888E70470146088F7047E8
:103700000146888F70470146B1F840007047014676
:10371000888C70470146088D704702460020138A46
:103720000B4201D0012000E000207047CA43028212
:10373000704730B50246002000230024158A05EAB0
:103740000103958905EA010413B10CB1012000E0E1
:10375000002030BDCA4302827047000010B5044605
:10376000FC48844209D101218803FFF7CEF80021EB
:103770004FF48040FFF7C9F832E0F748844209D19E
:1037800001214804FFF7CEF800214FF40030FFF785
:10379000C9F825E0F148844209D101218804FFF7E6
:1037A000C1F800214FF48020FFF7BCF818E0EC4886
:1037B000844209D10121C804FFF7B4F800214FF475
:1037C0000020FFF7AFF80BE0E648844208D1012162
:1037D0000805FFF7A7F800214FF48010FFF7A2F8C3
:1037E00010BD2DE9F04786B005460E460024A246DE
:1037F00000BFA1460027B08900B100BF2F462C8A28
:103800004CF6FF700440F08804432C82AC894EF6DD
:10381000F3100440B0883189084371890843044398
:10382000AC81AC8A4FF6FF400440B0890443AC82BF
:1038300001A8FEF7E3FFC748874202D1DDF810A0D8
:1038400001E0DDF80CA0A88910F4004F08D00AEBC5
:10385000CA0000EB0A1031684900B0FBF1F807E03C
:103860000AEBCA0000EB0A1031688900B0FBF1F8DE
:103870006420B8FBF0F004012009642101FB1089E9
:10388000A88910F4004F08D0322000EBC900B0FB2B
:10389000F1F000F00700044308E0322000EB0910CB
:1038A0006421B0FBF1F000F00F0004432C8106B05E
:1038B000BDE8F0874FF41651016000218180C1807E
:1038C00001810C21418100218181704710B50246A0
:1038D0000020108A4FF2FF0318400B884C882343C6
:1038E0008C882343CC8823431843108210BD0021C9
:1038F000018041808180C180704721B1828942F47A
:103900000052828104E082894DF6FF731A40828161
:103910007047F0B503460024002600250020A1F5DD
:1039200010676A3F00D100BF1846C1F3421401F08E
:103930001F06012707FA06F5012C01D10C3004E01F
:10394000022C01D1103000E014301AB107682F4367
:10395000076002E00768AF430760F0BD10B51AB119
:10396000838A0B43838204E0838ACC43A4B223403E
:10397000838210BD028A4FF6F0731A400282028AD7
:103980000A430282704782894FF2FF731A40828194
:1039900082890A438281704721B1828942F0020202
:1039A000828104E082894FF6FD731A40828170475C
:1039B000028A4FF6DF731A400282028A0A430282A9
:1039C000704721B1028A42F48042028204E0028AF6
:1039D0004BF6FF731A4002827047C1F308028280DF
:1039E000704701468888C0F308007047818941F01C
:1039F000010181817047028BD2B20283028B42EABD
:103A0000012202837047028B02F47F420283028B01
:103A10000A430283704721B1828A42F020028282E7
:103A200004E0828A4FF6DF731A408282704721B128
:103A3000828A42F01002828204E0828A4FF6EF739B
:103A40001A408282704721B1828A42F00802828243
:103A500004E0828A4FF6F7731A408282704721B1E0
:103A6000828942F40042828103E08289C2F30E021D
:103A70008281704721B1828A42F40062828204E02E
:103A8000828A4FF2FF731A4082827047828A4FF611
:103A9000FB731A408282828A0A438282704721B174
:103AA000828A42F00202828204E0828A4FF6FD732B
:103AB0001A408282704702460020B1F5007F00D193
:103AC00000BF13880B4201D0012000E000207047A6
:103AD00001F40072B2F5007F00D100BFCA4302803A
:103AE000704770B502460024002300250020A1F590
:103AF00010666A3E00D100BFC1F3421501F01F03FA
:103B0000012606FA03F3012D02D19689334006E01F
:103B1000022D02D1168A334001E0968A33400C12FE
:103B2000012606FA04F41688344013B10CB10120C2
:103B300000E0002070BD10B500220023A1F5106444
:103B40006A3C00D100BF0A1201249440A3B2DC43B6
:103B5000048010BD0038014000440040004800408F
:103B6000004C00400050004006488047064800478F
:103B7000FEE7FEE7FEE7FEE7FEE7FEE7FEE7FEE71D
:103B8000FEE7FEE7553C0008310100080021002057
:103B9000674A126842F48032654B1A6000BF644A7B
:103BA000126802F40030491C10B9B1F5A06FF6D1CB
:103BB0005F4A126812F4003F01D0012000E00020AB
:103BC000012842D15B4A126842F01002594B1A6038
:103BD0001A46126822F003021A601A46126842F06E
:103BE00002021A60524A5268514B5A601A46526891
:103BF0005A601A46526842F480625A601A46526805
:103C000022F47C125A601A46526842F4E8125A6052
:103C10001A46126842F080721A6000BF444A126865
:103C200012F0007FFAD0424A526822F00302404B61
:103C30005A601A46526842F002025A6000BF3C4A7B
:103C4000526802F00C02082AF9D1704710B5FFF74C
:103C50009DFF10BD10B53648006840F001003449A2
:103C600008600846406834490840314948600846C1
:103C70000068324908402E4908600846006820F470
:103C8000802008600846406820F4FE0048604FF439
:103C90001F008860FFF7DAFF4FF0006028490860D6
:103CA00010BD10B5002100200022214B5B6803F0FD
:103CB0000C0121B1042906D0082928D107E0214BA5
:103CC000214C236027E01F4B1F4C236023E0184B3F
:103CD0005B6803F47010164B5B6803F480320223B8
:103CE00003EB904022B9194B4343174C23600DE07E
:103CF0000F4B5B6813F4003F04D0144B4343124C4A
:103D0000236003E00F4B43430F4C236003E00D4B54
:103D10000D4C236000BF00BF054B5B68C3F303136A
:103D20000B4CE15C084B1B68CB40074C236010BD7B
:103D300000100240002002400000FFF8FFFFF6FEE6
:103D400008ED00E000127A007000002000093D003C
:103D500074000020D2B201E000F8012B491EFBD212
:103D600070470022F6E710B50446084611460246A1
:103D70002046FFF7EFFF204610BDF0B480EA0102B5
:103D8000D20F4300B3EB410F02D203460846194657
:103D90004B0042D0C30DDDB2C1F3C7542C1B202C05
:103DA00035DAC1F3160141F4000502B16D42C4F1E8
:103DB000200605FA06F125412844B3EBD05F23D055
:103DC000C2B1012CA0EBC35009DCF0BC4FF00042A3
:103DD00002EAC35200F50000DBB200F002B9400075
:103DE00000F1807000EBC350A0F1807040EAD17008
:103DF000490009E0490841EAC071A0EBC35000F551
:103E00000000400800EBC350F0BC00F0E1B85142A4
:103E1000012303EB4101801AF6E7F0BC704781F003
:103E20000041AAE780F00040A7E780EA010210B550
:103E300002F00042400026D04B0023D04FEA106130
:103E400001EB1361C0F35600C3F3560340F40000C6
:103E500043F40003A0FB0330A1F17F014FEA0040CF
:103E60001C0401D000F1010050EA134001D44000CD
:103E7000491EC3B20C0604EBD010401C4008802B36
:103E800002D003E0002010BD20F00100002900DA7C
:103E90000020104310BD80EA010202F0004330B45C
:103EA00030F0004221F0004015D0A0B1C0F3C7555A
:103EB000C2F3C754C2F31601C0F31600651B41F4E8
:103EC000000140F400007D35814201D36D1C00E00B
:103ED0004900002D02DA30BC002070474FF4000288
:103EE0000024814201D3091A144352084FEA4101C8
:103EF000F7D151B1814202D14FF0004105E002D229
:103F00004FF0010101E06FF0010104EBC55030BC3E
:103F1000184400F05DB896230022114600F061B805
:103F200000F0004220F00040C10DC0F3160040F444
:103F300000007F2901DA00207047962903DCC1F1D7
:103F40009601C84001E096398840002AF4D04042EA
:103F5000704720F00040C10DC0F3160040F400008F
:103F60007F2901DA00207047962903DCC1F1960110
:103F7000C84070479639884070470000002801DB30
:103F8000C0F10040002901DBC1F1004181427047CE
:103F9000002801DBC0F10040002901DBC1F1004134
:103FA0008842704730B50B4601460020202201248C
:103FB00009E021FA02F59D4205D303FA02F5491BF7
:103FC00004FA02F52844151EA2F10102F1DC30BD0D
:103FD0000029A8BF7047401C490008BF20F001001D
:103FE000704710B4B0FA80FC00FA0CF050EA0104FB
:103FF00004BF10BC704749B1CCF1200421FA04F48D
:1040000011FA0CF118BF012121430843A3EB0C0165
:10401000CB1D4FEA00614FEA102048BF0020BCBF13
:1040200010BC704700EBC35010440029A4BF10BC63
:104030007047401C490008BF20F0010010BC7047C9
:10404000064C074D06E0E06840F0010394E80700E5
:1040500098471034AC42F6D3FCF76EF8B44200082F
:10406000D44200080FB4054B10B503A9044A0298C6
:1040700000F018F810BC5DF814FB0000D502000831
:104080008400002002E008C8121F08C1002AFAD1EB
:1040900070477047002001E001C1121F002AFBD1C8
:1040A000704700002DE9FF4F8BB005469A460F463A
:1040B0000026C6E0252836D100246D1C654AA0469E
:1040C00001212B78203B01FA03F0104202D0044377
:1040D0006D1CF6E728782E2817D115F8010F44F04B
:1040E00004042A280ED06FF02F022878A0F13001A6
:1040F00009290AD808EB880102EB410100EB01080D
:104100006D1CF2E757F8048B6D1C287869283ED0A7
:1041100005DC98B363280CD0642804D137E07328F9
:1041200010D075284DD052460D99904706F10106E2
:1041300086E001CF8DF8000000208DF80100E946EF
:10414000012003E057F8049B4FF0FF3061074FF068
:10415000000401D40AE0641C44450DDA8442FADB11
:1041600019F804100029F6D106E0641C8442FCDB37
:1041700019F804100029F8D1264405E065E019F883
:10418000010B52460D999047641EF8D258E001CFBA
:104190004FF00A0B002804DAC0F100004FF02D01A7
:1041A00002E0210504D52B218DF82410012104E023
:1041B000E10701D02021F7E700210DF12009089146
:1041C0000AE001CF4FF00A0BF6E75946FFF7EAFE87
:1041D00001F1300209F8012D0028F6D1ADEB0900FC
:1041E00000F1200B600701D44FF001080020424687
:1041F000D84501DDA2EB0B008046002406E009A8AB
:104200005246005D0D999047761C641C08988442C4
:10421000F5DB04E0302052460D999047761CB8F14A
:104220000001A8F10108F5DC05E019F8010B524680
:104230000D999047761CBBF10001ABF1010BF4DC4A
:104240006D1C287800287FF435AF0FB03046BDE8EC
:10425000F08F000009280100234D6F76653A256430
:10426000202C2053746172742054696D653A256462
:10427000202C20456E642054696D653A2564202CFD
:104280002053746172742056616C75653A25642000
:104290002C20456E6456616C75653A2564202C208F
:1042A000536572766572204E756D6265723A25644B
:1042B000200D0A00D4420008000000208800000001
:1042C000844000085C430008880000207807000054
:1042D0009440000800000000000000000000000002
:1042E00000000000000000000000000000000000CE
:1042F00000000000000000000000000000000000BE
:1043000000000000000000000000000000000000AD
:10431000000000000000000000000000000000009D
:10432000000000004B4E4B4B4B4B4B4B4B4B4B4B06
:10433000000000000102030401020304060708094B
:104340000204060800A24A04000000000000000069
:0C43500001020304060708090000000039
:0400000508000131BD
:00000001FF
